:020000040000FA
:0400000018F09FE570
:0400180018F09FE558
:040020008800000054
:04003800C8010000FB
:100040000120704770B50E4E0E4C82B03500361D43
:1000500005E00100306800F0A3F90C350C36A5422C
:1000600009D2706831682A688842F2D1306800216C
:1000700000F0A4F9F1E702B070BC01BC0047C04633
:10008000140400002004000000000FE11F00C0E382
:10009000120080E300F021E114D09FE51F00C0E3CF
:1000A0001F0080E300F021E108D09FE508009FE5F4
:1000B00010FF2FE10006004000050040C0000000D6
:1000C00001C08FE21CFF2FE1044C054D054E064F89
:1000D000AE462047002809D0BE4630474100000008
:1000E000D500000045000000ED000000044C054D67
:1000F0000020AE462047044C044DAE462047000089
:1001000021020000F700000091030000D503000069
:100110000A4908600E480E490968094A0A40026007
:1001200008480949016009482D2101600948094929
:100130000968802292010A43026070470000004073
:10014000FFDFFFFF14F1FFFFF901000014F2FFFFD2
:100150000CF0FFFF10F0FFFF00B564214843401E84
:100160000028FCD101BC00470748074909688022E4
:10017000D2040A4302601348124909688022D2045B
:100180000A4302607047C046088002E000B50C4890
:100190000B4909688022D2040A4302600748FFF72E
:1001A000DBFF0848074909688022D2040A4302603D
:1001B0000248FFF7D1FF01BC0047000010270000F4
:1001C0000C8002E0048002E004E04EE20F502DE9D2
:1001D000CF00E0E3F00EC0E3000090E50FE0A0E107
:1001E00010FF2FE1CF00E0E3F00EC0E30010A0E32A
:1001F000001080E50F90FDE800B50348006800F0AE
:10020000C5F801BC0047C0460000004000B5FFF73C
:10021000BDFF02480321016001BC0047004002E02D
:1002200000B500F047F800F011F8FFF79DFF054812
:100230000121016000F0DEF80348FFF769FF00F0DC
:10024000CFF8FEE740C01FE00D0200001548154939
:10025000096801229143016012481249096802228B
:10026000914301600F480F4909680C2291430160D6
:100270000C480C49096810220A4302600A48002110
:1002800001600A480949096801220A4302600848D6
:100290000321016003480349096801220A430260FF
:1002A0007047C046084002E0104002E00C4002E007
:1002B000004002E000B52B482A4909681F229143FB
:1002C00002220A43026027482649096860229143B6
:1002D00020220A430260244823490968FF229143EF
:1002E000AA220A43026020481F490968FF2291435D
:1002F00055220A4302601D481C49096801220A432D
:100300000260194818490968FF229143AA220A434A
:100310000260154814490968FF22914355220A4397
:100320000260134800688021C90001400800800A6B
:100330000028F6D00D480D49096802220A430260E0
:10034000094809490968FF229143AA220A43026029
:10035000054805490968FF22914355220A43026076
:1003600001BC004784C01FE08CC01FE080C01FE0BC
:1003700088C01FE07047000010B582B004000094F0
:1003800069460120FFF7F6FFF9E70000004700008B
:1003900000B581B000F01EF801B001BC00470000BC
:1003A00010B40300002A05D00C78491C1C705B1C9B
:1003B000521EF9D110BC00B0704700000906090EAA
:1003C0000300002A03D019705B1C521EFBD100B041
:1003D00070470000014CA64620470000790300004A
:1003E0007847C04600C00FE1C0C0CCE30CF021E16B
:1003F0001EFF2FE17847C04600C00FE1C0C08CE36C
:100400000CF021E100C00FE1C0C01CE2F9FFFF0ABF
:100410001EFF2FE10400000000000040000000402B
:0400000500000000F7
:00000001FF
